{
  "_format": "hh-sol-artifact-1",
  "contractName": "mintContractParent",
  "sourceName": "contracts/mintContractParent.sol",
  "abi": [
    {
      "anonymous": false,
      "inputs": [
        {
          "indexed": true,
          "internalType": "address",
          "name": "previousOwner",
          "type": "address"
        },
        {
          "indexed": true,
          "internalType": "address",
          "name": "newOwner",
          "type": "address"
        }
      ],
      "name": "OwnershipTransferred",
      "type": "event"
    },
    {
      "anonymous": false,
      "inputs": [
        {
          "indexed": false,
          "internalType": "address",
          "name": "",
          "type": "address"
        },
        {
          "indexed": false,
          "internalType": "address",
          "name": "",
          "type": "address"
        }
      ],
      "name": "TokenCreated",
      "type": "event"
    },
    {
      "anonymous": false,
      "inputs": [
        {
          "indexed": false,
          "internalType": "address",
          "name": "",
          "type": "address"
        },
        {
          "indexed": false,
          "internalType": "address",
          "name": "",
          "type": "address"
        },
        {
          "indexed": false,
          "internalType": "address",
          "name": "",
          "type": "address"
        },
        {
          "indexed": false,
          "internalType": "uint256",
          "name": "",
          "type": "uint256"
        }
      ],
      "name": "TokenTransfered",
      "type": "event"
    },
    {
      "inputs": [
        {
          "internalType": "address",
          "name": "mintor",
          "type": "address"
        },
        {
          "internalType": "address",
          "name": "tokenAddress",
          "type": "address"
        },
        {
          "internalType": "uint256",
          "name": "start",
          "type": "uint256"
        },
        {
          "internalType": "uint256",
          "name": "end",
          "type": "uint256"
        },
        {
          "internalType": "uint256",
          "name": "price",
          "type": "uint256"
        }
      ],
      "name": "bulkMintERC721",
      "outputs": [],
      "stateMutability": "nonpayable",
      "type": "function"
    },
    {
      "inputs": [
        {
          "internalType": "uint256",
          "name": "tokenId",
          "type": "uint256"
        },
        {
          "internalType": "address",
          "name": "tokenAddress",
          "type": "address"
        }
      ],
      "name": "callPurchaseItem",
      "outputs": [],
      "stateMutability": "payable",
      "type": "function"
    },
    {
      "inputs": [
        {
          "internalType": "string",
          "name": "name",
          "type": "string"
        },
        {
          "internalType": "string",
          "name": "symbol",
          "type": "string"
        }
      ],
      "name": "createToken",
      "outputs": [],
      "stateMutability": "nonpayable",
      "type": "function"
    },
    {
      "inputs": [
        {
          "internalType": "address",
          "name": "tokenContractAddress",
          "type": "address"
        }
      ],
      "name": "getAllTokenId",
      "outputs": [
        {
          "internalType": "uint256[]",
          "name": "",
          "type": "uint256[]"
        }
      ],
      "stateMutability": "view",
      "type": "function"
    },
    {
      "inputs": [],
      "name": "getCountValue",
      "outputs": [
        {
          "internalType": "uint256",
          "name": "",
          "type": "uint256"
        }
      ],
      "stateMutability": "view",
      "type": "function"
    },
    {
      "inputs": [],
      "name": "owner",
      "outputs": [
        {
          "internalType": "address",
          "name": "",
          "type": "address"
        }
      ],
      "stateMutability": "view",
      "type": "function"
    },
    {
      "inputs": [],
      "name": "renounceOwnership",
      "outputs": [],
      "stateMutability": "nonpayable",
      "type": "function"
    },
    {
      "inputs": [
        {
          "internalType": "address",
          "name": "newOwner",
          "type": "address"
        }
      ],
      "name": "transferOwnership",
      "outputs": [],
      "stateMutability": "nonpayable",
      "type": "function"
    },
    {
      "inputs": [
        {
          "internalType": "address",
          "name": "from",
          "type": "address"
        },
        {
          "internalType": "address payable",
          "name": "to",
          "type": "address"
        },
        {
          "internalType": "address",
          "name": "token",
          "type": "address"
        },
        {
          "internalType": "uint256",
          "name": "amount",
          "type": "uint256"
        }
      ],
      "name": "transferToken",
      "outputs": [],
      "stateMutability": "nonpayable",
      "type": "function"
    }
  ],
  "bytecode": "0x608060405234801561001057600080fd5b5061002d61002261003260201b60201c565b61003a60201b60201c565b6100fe565b600033905090565b60008060009054906101000a900473ffffffffffffffffffffffffffffffffffffffff169050816000806101000a81548173ffffffffffffffffffffffffffffffffffffffff021916908373ffffffffffffffffffffffffffffffffffffffff1602179055508173ffffffffffffffffffffffffffffffffffffffff168173ffffffffffffffffffffffffffffffffffffffff167f8be0079c531659141344cd1fd0a4f28419497f9722a3daafe3b4186f6b6457e060405160405180910390a35050565b614de88061010d6000396000f3fe608060405260043610620000925760003560e01c80638ef47da311620000615780638ef47da3146200013d5780639d0df75d14620001815780639e79fbf714620001af578063ee2729e514620001df578063f2fde38b14620001ff5762000092565b80632c54de4f14620000975780632f2f2d5614620000c5578063715018a614620000f35780638da5cb5b146200010d575b600080fd5b348015620000a457600080fd5b50620000c36004803603810190620000bd919062000940565b6200022d565b005b348015620000d257600080fd5b50620000f16004803603810190620000eb919062000b14565b620002e7565b005b3480156200010057600080fd5b506200010b62000366565b005b3480156200011a57600080fd5b50620001256200037e565b60405162000134919062000baa565b60405180910390f35b3480156200014a57600080fd5b5062000169600480360381019062000163919062000bc7565b620003a7565b60405162000178919062000cc7565b60405180910390f35b3480156200018e57600080fd5b50620001ad6004803603810190620001a7919062000ceb565b620004ab565b005b348015620001bc57600080fd5b50620001c7620005df565b604051620001d6919062000d84565b60405180910390f35b620001fd6004803603810190620001f7919062000da1565b620005e9565b005b3480156200020c57600080fd5b506200022b600480360381019062000225919062000bc7565b6200065e565b005b8173ffffffffffffffffffffffffffffffffffffffff166368155ec1858585856040518563ffffffff1660e01b81526004016200026e949392919062000df9565b600060405180830381600087803b1580156200028957600080fd5b505af11580156200029e573d6000803e3d6000fd5b505050507fa7814aaf178d6c8e61b2703f3dc1b8328dd6c99cbb405bf8f1bb0cb1bbb051a584848484604051620002d9949392919062000eb1565b60405180910390a150505050565b60008282604051620002f99062000839565b6200030692919062000f87565b604051809103906000f08015801562000323573d6000803e3d6000fd5b5090507fd5f9bdf12adf29dab0248c349842c3822d53ae2bb4f36352f301630d018c813933826040516200035992919062000fc2565b60405180910390a1505050565b62000370620006e8565b6200037c60006200076d565b565b60008060009054906101000a900473ffffffffffffffffffffffffffffffffffffffff16905090565b6060600060015467ffffffffffffffff811115620003ca57620003c9620009cd565b5b604051908082528060200260200182016040528015620003f95781602001602082028036833780820191505090505b50905060005b600154811015620004a157600260008573ffffffffffffffffffffffffffffffffffffffff1673ffffffffffffffffffffffffffffffffffffffff16815260200190815260200160002081815481106200045e576200045d62000fef565b5b90600052602060002001548282815181106200047f576200047e62000fef565b5b602002602001018181525050808062000498906200104d565b915050620003ff565b5080915050919050565b6000808490505b83811015620005cf5760008673ffffffffffffffffffffffffffffffffffffffff1663a144819489866040518363ffffffff1660e01b8152600401620004fa9291906200109a565b6020604051808303816000875af11580156200051a573d6000803e3d6000fd5b505050506040513d601f19601f82011682018060405250810190620005409190620010de565b9050600260008873ffffffffffffffffffffffffffffffffffffffff1673ffffffffffffffffffffffffffffffffffffffff1681526020019081526020016000208190806001815401808255809150506001900390600052602060002001600090919091909150558280620005b5906200104d565b935050508080620005c6906200104d565b915050620004b2565b5080600181905550505050505050565b6000600154905090565b8073ffffffffffffffffffffffffffffffffffffffff16637bfe9efd83336040518363ffffffff1660e01b81526004016200062692919062001110565b600060405180830381600087803b1580156200064157600080fd5b505af115801562000656573d6000803e3d6000fd5b505050505050565b62000668620006e8565b600073ffffffffffffffffffffffffffffffffffffffff168173ffffffffffffffffffffffffffffffffffffffff1603620006da576040517f08c379a0000000000000000000000000000000000000000000000000000000008152600401620006d190620011b3565b60405180910390fd5b620006e5816200076d565b50565b620006f262000831565b73ffffffffffffffffffffffffffffffffffffffff16620007126200037e565b73ffffffffffffffffffffffffffffffffffffffff16146200076b576040517f08c379a0000000000000000000000000000000000000000000000000000000008152600401620007629062001225565b60405180910390fd5b565b60008060009054906101000a900473ffffffffffffffffffffffffffffffffffffffff169050816000806101000a81548173ffffffffffffffffffffffffffffffffffffffff021916908373ffffffffffffffffffffffffffffffffffffffff1602179055508173ffffffffffffffffffffffffffffffffffffffff168173ffffffffffffffffffffffffffffffffffffffff167f8be0079c531659141344cd1fd0a4f28419497f9722a3daafe3b4186f6b6457e060405160405180910390a35050565b600033905090565b613b6b806200124883390190565b6000604051905090565b600080fd5b600080fd5b600073ffffffffffffffffffffffffffffffffffffffff82169050919050565b600062000888826200085b565b9050919050565b6200089a816200087b565b8114620008a657600080fd5b50565b600081359050620008ba816200088f565b92915050565b6000620008cd826200085b565b9050919050565b620008df81620008c0565b8114620008eb57600080fd5b50565b600081359050620008ff81620008d4565b92915050565b6000819050919050565b6200091a8162000905565b81146200092657600080fd5b50565b6000813590506200093a816200090f565b92915050565b600080600080608085870312156200095d576200095c62000851565b5b60006200096d87828801620008a9565b94505060206200098087828801620008ee565b93505060406200099387828801620008a9565b9250506060620009a68782880162000929565b91505092959194509250565b600080fd5b600080fd5b6000601f19601f8301169050919050565b7f4e487b7100000000000000000000000000000000000000000000000000000000600052604160045260246000fd5b62000a0782620009bc565b810181811067ffffffffffffffff8211171562000a295762000a28620009cd565b5b80604052505050565b600062000a3e62000847565b905062000a4c8282620009fc565b919050565b600067ffffffffffffffff82111562000a6f5762000a6e620009cd565b5b62000a7a82620009bc565b9050602081019050919050565b82818337600083830152505050565b600062000aad62000aa78462000a51565b62000a32565b90508281526020810184848401111562000acc5762000acb620009b7565b5b62000ad984828562000a87565b509392505050565b600082601f83011262000af95762000af8620009b2565b5b813562000b0b84826020860162000a96565b91505092915050565b6000806040838503121562000b2e5762000b2d62000851565b5b600083013567ffffffffffffffff81111562000b4f5762000b4e62000856565b5b62000b5d8582860162000ae1565b925050602083013567ffffffffffffffff81111562000b815762000b8062000856565b5b62000b8f8582860162000ae1565b9150509250929050565b62000ba4816200087b565b82525050565b600060208201905062000bc1600083018462000b99565b92915050565b60006020828403121562000be05762000bdf62000851565b5b600062000bf084828501620008a9565b91505092915050565b600081519050919050565b600082825260208201905092915050565b6000819050602082019050919050565b62000c308162000905565b82525050565b600062000c44838362000c25565b60208301905092915050565b6000602082019050919050565b600062000c6a8262000bf9565b62000c76818562000c04565b935062000c838362000c15565b8060005b8381101562000cba57815162000c9e888262000c36565b975062000cab8362000c50565b92505060018101905062000c87565b5085935050505092915050565b6000602082019050818103600083015262000ce3818462000c5d565b905092915050565b600080600080600060a0868803121562000d0a5762000d0962000851565b5b600062000d1a88828901620008a9565b955050602062000d2d88828901620008a9565b945050604062000d408882890162000929565b935050606062000d538882890162000929565b925050608062000d668882890162000929565b9150509295509295909350565b62000d7e8162000905565b82525050565b600060208201905062000d9b600083018462000d73565b92915050565b6000806040838503121562000dbb5762000dba62000851565b5b600062000dcb8582860162000929565b925050602062000dde85828601620008a9565b9150509250929050565b62000df381620008c0565b82525050565b600060808201905062000e10600083018762000b99565b62000e1f602083018662000de8565b62000e2e604083018562000b99565b62000e3d606083018462000d73565b95945050505050565b6000819050919050565b600062000e7162000e6b62000e65846200085b565b62000e46565b6200085b565b9050919050565b600062000e858262000e50565b9050919050565b600062000e998262000e78565b9050919050565b62000eab8162000e8c565b82525050565b600060808201905062000ec8600083018762000b99565b62000ed7602083018662000ea0565b62000ee6604083018562000b99565b62000ef5606083018462000d73565b95945050505050565b600081519050919050565b600082825260208201905092915050565b60005b8381101562000f3a57808201518184015260208101905062000f1d565b60008484015250505050565b600062000f538262000efe565b62000f5f818562000f09565b935062000f7181856020860162000f1a565b62000f7c81620009bc565b840191505092915050565b6000604082019050818103600083015262000fa3818562000f46565b9050818103602083015262000fb9818462000f46565b90509392505050565b600060408201905062000fd9600083018562000b99565b62000fe8602083018462000b99565b9392505050565b7f4e487b7100000000000000000000000000000000000000000000000000000000600052603260045260246000fd5b7f4e487b7100000000000000000000000000000000000000000000000000000000600052601160045260246000fd5b60006200105a8262000905565b91507fffffffffffffffffffffffffffffffffffffffffffffffffffffffffffffffff82036200108f576200108e6200101e565b5b600182019050919050565b6000604082019050620010b1600083018562000b99565b620010c0602083018462000d73565b9392505050565b600081519050620010d8816200090f565b92915050565b600060208284031215620010f757620010f662000851565b5b60006200110784828501620010c7565b91505092915050565b600060408201905062001127600083018562000d73565b62001136602083018462000b99565b9392505050565b7f4f776e61626c653a206e6577206f776e657220697320746865207a65726f206160008201527f6464726573730000000000000000000000000000000000000000000000000000602082015250565b60006200119b60268362000f09565b9150620011a8826200113d565b604082019050919050565b60006020820190508181036000830152620011ce816200118c565b9050919050565b7f4f776e61626c653a2063616c6c6572206973206e6f7420746865206f776e6572600082015250565b60006200120d60208362000f09565b91506200121a82620011d5565b602082019050919050565b600060208201905081810360008301526200124081620011fe565b905091905056fe608060405260026007553480156200001657600080fd5b5060405162003b6b38038062003b6b83398181016040528101906200003c9190620001ff565b818181600090816200004f9190620004cf565b508060019081620000619190620004cf565b5050505050620005b6565b6000604051905090565b600080fd5b600080fd5b600080fd5b600080fd5b6000601f19601f8301169050919050565b7f4e487b7100000000000000000000000000000000000000000000000000000000600052604160045260246000fd5b620000d5826200008a565b810181811067ffffffffffffffff82111715620000f757620000f66200009b565b5b80604052505050565b60006200010c6200006c565b90506200011a8282620000ca565b919050565b600067ffffffffffffffff8211156200013d576200013c6200009b565b5b62000148826200008a565b9050602081019050919050565b60005b838110156200017557808201518184015260208101905062000158565b60008484015250505050565b60006200019862000192846200011f565b62000100565b905082815260208101848484011115620001b757620001b662000085565b5b620001c484828562000155565b509392505050565b600082601f830112620001e457620001e362000080565b5b8151620001f684826020860162000181565b91505092915050565b6000806040838503121562000219576200021862000076565b5b600083015167ffffffffffffffff8111156200023a57620002396200007b565b5b6200024885828601620001cc565b925050602083015167ffffffffffffffff8111156200026c576200026b6200007b565b5b6200027a85828601620001cc565b9150509250929050565b600081519050919050565b7f4e487b7100000000000000000000000000000000000000000000000000000000600052602260045260246000fd5b60006002820490506001821680620002d757607f821691505b602082108103620002ed57620002ec6200028f565b5b50919050565b60008190508160005260206000209050919050565b60006020601f8301049050919050565b600082821b905092915050565b600060088302620003577fffffffffffffffffffffffffffffffffffffffffffffffffffffffffffffffff8262000318565b62000363868362000318565b95508019841693508086168417925050509392505050565b6000819050919050565b6000819050919050565b6000620003b0620003aa620003a4846200037b565b62000385565b6200037b565b9050919050565b6000819050919050565b620003cc836200038f565b620003e4620003db82620003b7565b84845462000325565b825550505050565b600090565b620003fb620003ec565b62000408818484620003c1565b505050565b5b81811015620004305762000424600082620003f1565b6001810190506200040e565b5050565b601f8211156200047f576200044981620002f3565b620004548462000308565b8101602085101562000464578190505b6200047c620004738562000308565b8301826200040d565b50505b505050565b600082821c905092915050565b6000620004a46000198460080262000484565b1980831691505092915050565b6000620004bf838362000491565b9150826002028217905092915050565b620004da8262000284565b67ffffffffffffffff811115620004f657620004f56200009b565b5b620005028254620002be565b6200050f82828562000434565b600060209050601f83116001811462000547576000841562000532578287015190505b6200053e8582620004b1565b865550620005ae565b601f1984166200055786620002f3565b60005b8281101562000581578489015182556001820191506020850194506020810190506200055a565b86831015620005a157848901516200059d601f89168262000491565b8355505b6001600288020188555050505b505050505050565b6135a580620005c66000396000f3fe60806040526004361061011f5760003560e01c806370a08231116100a0578063a22cb46511610064578063a22cb46514610403578063b88d4fde1461042c578063c87b56dd14610455578063ca7dd37514610492578063e985e9c5146104cf5761011f565b806370a08231146103175780637bfe9efd146103545780637fd6f15c1461037057806395d89b411461039b578063a1448194146103c65761011f565b806342842e0e116100e757806342842e0e1461021b57806351f28e14146102445780636352211e1461028657806365e17c9d146102c357806368155ec1146102ee5761011f565b806301ffc9a71461012457806306fdde0314610161578063081812fc1461018c578063095ea7b3146101c957806323b872dd146101f2575b600080fd5b34801561013057600080fd5b5061014b600480360381019061014691906120e6565b61050c565b604051610158919061212e565b60405180910390f35b34801561016d57600080fd5b506101766105ee565b60405161018391906121d9565b60405180910390f35b34801561019857600080fd5b506101b360048036038101906101ae9190612231565b610680565b6040516101c0919061229f565b60405180910390f35b3480156101d557600080fd5b506101f060048036038101906101eb91906122e6565b610705565b005b3480156101fe57600080fd5b5061021960048036038101906102149190612326565b61081c565b005b34801561022757600080fd5b50610242600480360381019061023d9190612326565b610875565b005b34801561025057600080fd5b5061026b60048036038101906102669190612231565b610895565b60405161027d969594939291906123a9565b60405180910390f35b34801561029257600080fd5b506102ad60048036038101906102a89190612231565b61093e565b6040516102ba919061229f565b60405180910390f35b3480156102cf57600080fd5b506102d86109ef565b6040516102e5919061240a565b60405180910390f35b3480156102fa57600080fd5b5061031560048036038101906103109190612451565b610a15565b005b34801561032357600080fd5b5061033e600480360381019061033991906124b8565b610b38565b60405161034b91906124e5565b60405180910390f35b61036e60048036038101906103699190612500565b610bef565b005b34801561037c57600080fd5b50610385610f93565b60405161039291906124e5565b60405180910390f35b3480156103a757600080fd5b506103b0610f99565b6040516103bd91906121d9565b60405180910390f35b3480156103d257600080fd5b506103ed60048036038101906103e891906122e6565b61102b565b6040516103fa91906124e5565b60405180910390f35b34801561040f57600080fd5b5061042a6004803603810190610425919061256c565b61123e565b005b34801561043857600080fd5b50610453600480360381019061044e91906126e1565b611254565b005b34801561046157600080fd5b5061047c60048036038101906104779190612231565b6112b6565b60405161048991906121d9565b60405180910390f35b34801561049e57600080fd5b506104b960048036038101906104b49190612231565b61135d565b6040516104c691906124e5565b60405180910390f35b3480156104db57600080fd5b506104f660048036038101906104f19190612764565b6113a2565b604051610503919061212e565b60405180910390f35b60007f80ac58cd000000000000000000000000000000000000000000000000000000007bffffffffffffffffffffffffffffffffffffffffffffffffffffffff1916827bffffffffffffffffffffffffffffffffffffffffffffffffffffffff191614806105d757507f5b5e139f000000000000000000000000000000000000000000000000000000007bffffffffffffffffffffffffffffffffffffffffffffffffffffffff1916827bffffffffffffffffffffffffffffffffffffffffffffffffffffffff1916145b806105e757506105e682611436565b5b9050919050565b6060600080546105fd906127d3565b80601f0160208091040260200160405190810160405280929190818152602001828054610629906127d3565b80156106765780601f1061064b57610100808354040283529160200191610676565b820191906000526020600020905b81548152906001019060200180831161065957829003601f168201915b5050505050905090565b600061068b826114a0565b6106ca576040517f08c379a00000000000000000000000000000000000000000000000000000000081526004016106c190612876565b60405180910390fd5b6004600083815260200190815260200160002060009054906101000a900473ffffffffffffffffffffffffffffffffffffffff169050919050565b60006107108261093e565b90508073ffffffffffffffffffffffffffffffffffffffff168373ffffffffffffffffffffffffffffffffffffffff1603610780576040517f08c379a000000000000000000000000000000000000000000000000000000000815260040161077790612908565b60405180910390fd5b8073ffffffffffffffffffffffffffffffffffffffff1661079f61150c565b73ffffffffffffffffffffffffffffffffffffffff1614806107ce57506107cd816107c861150c565b6113a2565b5b61080d576040517f08c379a00000000000000000000000000000000000000000000000000000000081526004016108049061299a565b60405180910390fd5b6108178383611514565b505050565b61082683826115cd565b610865576040517f08c379a000000000000000000000000000000000000000000000000000000000815260040161085c90612a2c565b60405180910390fd5b6108708383836116ab565b505050565b61089083838360405180602001604052806000815250611254565b505050565b60096020528060005260406000206000915090508060000160009054906101000a900473ffffffffffffffffffffffffffffffffffffffff16908060010154908060020160009054906101000a900473ffffffffffffffffffffffffffffffffffffffff16908060030160009054906101000a900473ffffffffffffffffffffffffffffffffffffffff16908060040154908060050160009054906101000a900460ff16905086565b6000806002600084815260200190815260200160002060009054906101000a900473ffffffffffffffffffffffffffffffffffffffff169050600073ffffffffffffffffffffffffffffffffffffffff168173ffffffffffffffffffffffffffffffffffffffff16036109e6576040517f08c379a00000000000000000000000000000000000000000000000000000000081526004016109dd90612abe565b60405180910390fd5b80915050919050565b600860009054906101000a900473ffffffffffffffffffffffffffffffffffffffff1681565b600073ffffffffffffffffffffffffffffffffffffffff168273ffffffffffffffffffffffffffffffffffffffff1614610abd578173ffffffffffffffffffffffffffffffffffffffff166323b872dd8585846040518463ffffffff1660e01b8152600401610a8693929190612b3d565b600060405180830381600087803b158015610aa057600080fd5b505af1158015610ab4573d6000803e3d6000fd5b50505050610b32565b8273ffffffffffffffffffffffffffffffffffffffff166108fc829081150290604051600060405180830381858888f19350505050610b31576040517f08c379a0000000000000000000000000000000000000000000000000000000008152600401610b2890612be6565b60405180910390fd5b5b50505050565b60008073ffffffffffffffffffffffffffffffffffffffff168273ffffffffffffffffffffffffffffffffffffffff1603610ba8576040517f08c379a0000000000000000000000000000000000000000000000000000000008152600401610b9f90612c78565b60405180910390fd5b600360008373ffffffffffffffffffffffffffffffffffffffff1673ffffffffffffffffffffffffffffffffffffffff168152602001908152602001600020549050919050565b6000610bfa8361135d565b90506000600960008581526020019081526020016000206040518060c00160405290816000820160009054906101000a900473ffffffffffffffffffffffffffffffffffffffff1673ffffffffffffffffffffffffffffffffffffffff1673ffffffffffffffffffffffffffffffffffffffff168152602001600182015481526020016002820160009054906101000a900473ffffffffffffffffffffffffffffffffffffffff1673ffffffffffffffffffffffffffffffffffffffff1673ffffffffffffffffffffffffffffffffffffffff1681526020016003820160009054906101000a900473ffffffffffffffffffffffffffffffffffffffff1673ffffffffffffffffffffffffffffffffffffffff1673ffffffffffffffffffffffffffffffffffffffff168152602001600482015481526020016005820160009054906101000a900460ff161515151581525050905081341015610d92576040517f08c379a0000000000000000000000000000000000000000000000000000000008152600401610d8990612d0a565b60405180910390fd5b8060a0015115610dd7576040517f08c379a0000000000000000000000000000000000000000000000000000000008152600401610dce90612d76565b60405180910390fd5b806040015173ffffffffffffffffffffffffffffffffffffffff166108fc82608001519081150290604051600060405180830381858888f19350505050158015610e25573d6000803e3d6000fd5b5060018160a0019015159081151581525050806000015173ffffffffffffffffffffffffffffffffffffffff166323b872dd826040015185876040518463ffffffff1660e01b8152600401610e7c93929190612d96565b600060405180830381600087803b158015610e9657600080fd5b505af1158015610eaa573d6000803e3d6000fd5b50505050826009600086815260200190815260200160002060030160006101000a81548173ffffffffffffffffffffffffffffffffffffffff021916908373ffffffffffffffffffffffffffffffffffffffff1602179055508273ffffffffffffffffffffffffffffffffffffffff16816040015173ffffffffffffffffffffffffffffffffffffffff163073ffffffffffffffffffffffffffffffffffffffff167feb63d138ac814e90b4d90e51c5d97954429da77f7266e9aa0bf33bd9863f131d84602001518560800151604051610f85929190612dcd565b60405180910390a450505050565b60075481565b606060018054610fa8906127d3565b80601f0160208091040260200160405190810160405280929190818152602001828054610fd4906127d3565b80156110215780601f10610ff657610100808354040283529160200191611021565b820191906000526020600020905b81548152906001019060200180831161100457829003601f168201915b5050505050905090565b6000806110386006611911565b9050611044848261191f565b6040518060c001604052803073ffffffffffffffffffffffffffffffffffffffff1681526020018281526020018573ffffffffffffffffffffffffffffffffffffffff168152602001600073ffffffffffffffffffffffffffffffffffffffff168152602001848152602001600015158152506009600083815260200190815260200160002060008201518160000160006101000a81548173ffffffffffffffffffffffffffffffffffffffff021916908373ffffffffffffffffffffffffffffffffffffffff1602179055506020820151816001015560408201518160020160006101000a81548173ffffffffffffffffffffffffffffffffffffffff021916908373ffffffffffffffffffffffffffffffffffffffff16021790555060608201518160030160006101000a81548173ffffffffffffffffffffffffffffffffffffffff021916908373ffffffffffffffffffffffffffffffffffffffff1602179055506080820151816004015560a08201518160050160006101000a81548160ff0219169083151502179055509050506111e0600661193d565b803073ffffffffffffffffffffffffffffffffffffffff167f4e87d65c4baed28b185aa1f2f583850f4140e7ee01ee27c4e06f622d085b1bfc8660008760405161122c93929190612df6565b60405180910390a38091505092915050565b61125061124961150c565b8383611953565b5050565b61126561125f61150c565b836115cd565b6112a4576040517f08c379a000000000000000000000000000000000000000000000000000000000815260040161129b90612a2c565b60405180910390fd5b6112b084848484611abf565b50505050565b60606112c1826114a0565b611300576040517f08c379a00000000000000000000000000000000000000000000000000000000081526004016112f790612e9f565b60405180910390fd5b600061130a611b1b565b9050600081511161132a5760405180602001604052806000815250611355565b8061133484611b32565b604051602001611345929190612efb565b6040516020818303038152906040525b915050919050565b6000606460075460646113709190612f4e565b60096000858152602001908152602001600020600401546113919190612f82565b61139b9190612ff3565b9050919050565b6000600560008473ffffffffffffffffffffffffffffffffffffffff1673ffffffffffffffffffffffffffffffffffffffff16815260200190815260200160002060008373ffffffffffffffffffffffffffffffffffffffff1673ffffffffffffffffffffffffffffffffffffffff16815260200190815260200160002060009054906101000a900460ff16905092915050565b60007f01ffc9a7000000000000000000000000000000000000000000000000000000007bffffffffffffffffffffffffffffffffffffffffffffffffffffffff1916827bffffffffffffffffffffffffffffffffffffffffffffffffffffffff1916149050919050565b60008073ffffffffffffffffffffffffffffffffffffffff166002600084815260200190815260200160002060009054906101000a900473ffffffffffffffffffffffffffffffffffffffff1673ffffffffffffffffffffffffffffffffffffffff1614159050919050565b600033905090565b816004600083815260200190815260200160002060006101000a81548173ffffffffffffffffffffffffffffffffffffffff021916908373ffffffffffffffffffffffffffffffffffffffff160217905550808273ffffffffffffffffffffffffffffffffffffffff166115878361093e565b73ffffffffffffffffffffffffffffffffffffffff167f8c5be1e5ebec7d5bd14f71427d1e84f3dd0314c0f7b2291e5b200ac8c7c3b92560405160405180910390a45050565b60006115d8826114a0565b611617576040517f08c379a000000000000000000000000000000000000000000000000000000000815260040161160e90613096565b60405180910390fd5b60006116228361093e565b90508073ffffffffffffffffffffffffffffffffffffffff168473ffffffffffffffffffffffffffffffffffffffff16148061169157508373ffffffffffffffffffffffffffffffffffffffff1661167984610680565b73ffffffffffffffffffffffffffffffffffffffff16145b806116a257506116a181856113a2565b5b91505092915050565b8273ffffffffffffffffffffffffffffffffffffffff166116cb8261093e565b73ffffffffffffffffffffffffffffffffffffffff1614611721576040517f08c379a000000000000000000000000000000000000000000000000000000000815260040161171890613128565b60405180910390fd5b600073ffffffffffffffffffffffffffffffffffffffff168273ffffffffffffffffffffffffffffffffffffffff1603611790576040517f08c379a0000000000000000000000000000000000000000000000000000000008152600401611787906131ba565b60405180910390fd5b61179b838383611c92565b6117a6600082611514565b6001600360008573ffffffffffffffffffffffffffffffffffffffff1673ffffffffffffffffffffffffffffffffffffffff16815260200190815260200160002060008282546117f691906131da565b925050819055506001600360008473ffffffffffffffffffffffffffffffffffffffff1673ffffffffffffffffffffffffffffffffffffffff168152602001908152602001600020600082825461184d9190612f4e565b92505081905550816002600083815260200190815260200160002060006101000a81548173ffffffffffffffffffffffffffffffffffffffff021916908373ffffffffffffffffffffffffffffffffffffffff160217905550808273ffffffffffffffffffffffffffffffffffffffff168473ffffffffffffffffffffffffffffffffffffffff167fddf252ad1be2c89b69c2b068fc378daa952ba7f163c4a11628f55a4df523b3ef60405160405180910390a461190c838383611c97565b505050565b600081600001549050919050565b611939828260405180602001604052806000815250611c9c565b5050565b6001816000016000828254019250508190555050565b8173ffffffffffffffffffffffffffffffffffffffff168373ffffffffffffffffffffffffffffffffffffffff16036119c1576040517f08c379a00000000000000000000000000000000000000000000000000000000081526004016119b89061325a565b60405180910390fd5b80600560008573ffffffffffffffffffffffffffffffffffffffff1673ffffffffffffffffffffffffffffffffffffffff16815260200190815260200160002060008473ffffffffffffffffffffffffffffffffffffffff1673ffffffffffffffffffffffffffffffffffffffff16815260200190815260200160002060006101000a81548160ff0219169083151502179055508173ffffffffffffffffffffffffffffffffffffffff168373ffffffffffffffffffffffffffffffffffffffff167f17307eab39ab6107e8899845ad3d59bd9653f200f220920489ca2b5937696c3183604051611ab2919061212e565b60405180910390a3505050565b611aca8484846116ab565b611ad684848484611cf7565b611b15576040517f08c379a0000000000000000000000000000000000000000000000000000000008152600401611b0c906132ec565b60405180910390fd5b50505050565b606060405180602001604052806000815250905090565b606060008203611b79576040518060400160405280600181526020017f30000000000000000000000000000000000000000000000000000000000000008152509050611c8d565b600082905060005b60008214611bab578080611b949061330c565b915050600a82611ba49190612ff3565b9150611b81565b60008167ffffffffffffffff811115611bc757611bc66125b6565b5b6040519080825280601f01601f191660200182016040528015611bf95781602001600182028036833780820191505090505b5090505b60008514611c8657600182611c1291906131da565b9150600a85611c219190613354565b6030611c2d9190612f4e565b60f81b818381518110611c4357611c42613385565b5b60200101907effffffffffffffffffffffffffffffffffffffffffffffffffffffffffffff1916908160001a905350600a85611c7f9190612ff3565b9450611bfd565b8093505050505b919050565b505050565b505050565b611ca68383611e7e565b611cb36000848484611cf7565b611cf2576040517f08c379a0000000000000000000000000000000000000000000000000000000008152600401611ce9906132ec565b60405180910390fd5b505050565b6000611d188473ffffffffffffffffffffffffffffffffffffffff16612057565b15611e71578373ffffffffffffffffffffffffffffffffffffffff1663150b7a02611d4161150c565b8786866040518563ffffffff1660e01b8152600401611d639493929190613409565b6020604051808303816000875af1925050508015611d9f57506040513d601f19601f82011682018060405250810190611d9c919061346a565b60015b611e21573d8060008114611dcf576040519150601f19603f3d011682016040523d82523d6000602084013e611dd4565b606091505b506000815103611e19576040517f08c379a0000000000000000000000000000000000000000000000000000000008152600401611e10906132ec565b60405180910390fd5b805181602001fd5b63150b7a0260e01b7bffffffffffffffffffffffffffffffffffffffffffffffffffffffff1916817bffffffffffffffffffffffffffffffffffffffffffffffffffffffff191614915050611e76565b600190505b949350505050565b600073ffffffffffffffffffffffffffffffffffffffff168273ffffffffffffffffffffffffffffffffffffffff1603611eed576040517f08c379a0000000000000000000000000000000000000000000000000000000008152600401611ee4906134e3565b60405180910390fd5b611ef6816114a0565b15611f36576040517f08c379a0000000000000000000000000000000000000000000000000000000008152600401611f2d9061354f565b60405180910390fd5b611f4260008383611c92565b6001600360008473ffffffffffffffffffffffffffffffffffffffff1673ffffffffffffffffffffffffffffffffffffffff1681526020019081526020016000206000828254611f929190612f4e565b92505081905550816002600083815260200190815260200160002060006101000a81548173ffffffffffffffffffffffffffffffffffffffff021916908373ffffffffffffffffffffffffffffffffffffffff160217905550808273ffffffffffffffffffffffffffffffffffffffff16600073ffffffffffffffffffffffffffffffffffffffff167fddf252ad1be2c89b69c2b068fc378daa952ba7f163c4a11628f55a4df523b3ef60405160405180910390a461205360008383611c97565b5050565b6000808273ffffffffffffffffffffffffffffffffffffffff163b119050919050565b6000604051905090565b600080fd5b600080fd5b60007fffffffff0000000000000000000000000000000000000000000000000000000082169050919050565b6120c38161208e565b81146120ce57600080fd5b50565b6000813590506120e0816120ba565b92915050565b6000602082840312156120fc576120fb612084565b5b600061210a848285016120d1565b91505092915050565b60008115159050919050565b61212881612113565b82525050565b6000602082019050612143600083018461211f565b92915050565b600081519050919050565b600082825260208201905092915050565b60005b83811015612183578082015181840152602081019050612168565b60008484015250505050565b6000601f19601f8301169050919050565b60006121ab82612149565b6121b58185612154565b93506121c5818560208601612165565b6121ce8161218f565b840191505092915050565b600060208201905081810360008301526121f381846121a0565b905092915050565b6000819050919050565b61220e816121fb565b811461221957600080fd5b50565b60008135905061222b81612205565b92915050565b60006020828403121561224757612246612084565b5b60006122558482850161221c565b91505092915050565b600073ffffffffffffffffffffffffffffffffffffffff82169050919050565b60006122898261225e565b9050919050565b6122998161227e565b82525050565b60006020820190506122b46000830184612290565b92915050565b6122c38161227e565b81146122ce57600080fd5b50565b6000813590506122e0816122ba565b92915050565b600080604083850312156122fd576122fc612084565b5b600061230b858286016122d1565b925050602061231c8582860161221c565b9150509250929050565b60008060006060848603121561233f5761233e612084565b5b600061234d868287016122d1565b935050602061235e868287016122d1565b925050604061236f8682870161221c565b9150509250925092565b612382816121fb565b82525050565b60006123938261225e565b9050919050565b6123a381612388565b82525050565b600060c0820190506123be6000830189612290565b6123cb6020830188612379565b6123d8604083018761239a565b6123e5606083018661239a565b6123f26080830185612379565b6123ff60a083018461211f565b979650505050505050565b600060208201905061241f600083018461239a565b92915050565b61242e81612388565b811461243957600080fd5b50565b60008135905061244b81612425565b92915050565b6000806000806080858703121561246b5761246a612084565b5b6000612479878288016122d1565b945050602061248a8782880161243c565b935050604061249b878288016122d1565b92505060606124ac8782880161221c565b91505092959194509250565b6000602082840312156124ce576124cd612084565b5b60006124dc848285016122d1565b91505092915050565b60006020820190506124fa6000830184612379565b92915050565b6000806040838503121561251757612516612084565b5b60006125258582860161221c565b9250506020612536858286016122d1565b9150509250929050565b61254981612113565b811461255457600080fd5b50565b60008135905061256681612540565b92915050565b6000806040838503121561258357612582612084565b5b6000612591858286016122d1565b92505060206125a285828601612557565b9150509250929050565b600080fd5b600080fd5b7f4e487b7100000000000000000000000000000000000000000000000000000000600052604160045260246000fd5b6125ee8261218f565b810181811067ffffffffffffffff8211171561260d5761260c6125b6565b5b80604052505050565b600061262061207a565b905061262c82826125e5565b919050565b600067ffffffffffffffff82111561264c5761264b6125b6565b5b6126558261218f565b9050602081019050919050565b82818337600083830152505050565b600061268461267f84612631565b612616565b9050828152602081018484840111156126a05761269f6125b1565b5b6126ab848285612662565b509392505050565b600082601f8301126126c8576126c76125ac565b5b81356126d8848260208601612671565b91505092915050565b600080600080608085870312156126fb576126fa612084565b5b6000612709878288016122d1565b945050602061271a878288016122d1565b935050604061272b8782880161221c565b925050606085013567ffffffffffffffff81111561274c5761274b612089565b5b612758878288016126b3565b91505092959194509250565b6000806040838503121561277b5761277a612084565b5b6000612789858286016122d1565b925050602061279a858286016122d1565b9150509250929050565b7f4e487b7100000000000000000000000000000000000000000000000000000000600052602260045260246000fd5b600060028204905060018216806127eb57607f821691505b6020821081036127fe576127fd6127a4565b5b50919050565b7f4552433732313a20617070726f76656420717565727920666f72206e6f6e657860008201527f697374656e7420746f6b656e0000000000000000000000000000000000000000602082015250565b6000612860602c83612154565b915061286b82612804565b604082019050919050565b6000602082019050818103600083015261288f81612853565b9050919050565b7f4552433732313a20617070726f76616c20746f2063757272656e74206f776e6560008201527f7200000000000000000000000000000000000000000000000000000000000000602082015250565b60006128f2602183612154565b91506128fd82612896565b604082019050919050565b60006020820190508181036000830152612921816128e5565b9050919050565b7f4552433732313a20617070726f76652063616c6c6572206973206e6f74206f7760008201527f6e6572206e6f7220617070726f76656420666f7220616c6c0000000000000000602082015250565b6000612984603883612154565b915061298f82612928565b604082019050919050565b600060208201905081810360008301526129b381612977565b9050919050565b7f4552433732313a207472616e736665722063616c6c6572206973206e6f74206f60008201527f776e6572206e6f7220617070726f766564000000000000000000000000000000602082015250565b6000612a16603183612154565b9150612a21826129ba565b604082019050919050565b60006020820190508181036000830152612a4581612a09565b9050919050565b7f4552433732313a206f776e657220717565727920666f72206e6f6e657869737460008201527f656e7420746f6b656e0000000000000000000000000000000000000000000000602082015250565b6000612aa8602983612154565b9150612ab382612a4c565b604082019050919050565b60006020820190508181036000830152612ad781612a9b565b9050919050565b6000819050919050565b6000612b03612afe612af98461225e565b612ade565b61225e565b9050919050565b6000612b1582612ae8565b9050919050565b6000612b2782612b0a565b9050919050565b612b3781612b1c565b82525050565b6000606082019050612b526000830186612290565b612b5f6020830185612b2e565b612b6c6040830184612379565b949350505050565b7f5472616e73666572206f662045544820746f207265636569766572206661696c60008201527f6564000000000000000000000000000000000000000000000000000000000000602082015250565b6000612bd0602283612154565b9150612bdb82612b74565b604082019050919050565b60006020820190508181036000830152612bff81612bc3565b9050919050565b7f4552433732313a2062616c616e636520717565727920666f7220746865207a6560008201527f726f206164647265737300000000000000000000000000000000000000000000602082015250565b6000612c62602a83612154565b9150612c6d82612c06565b604082019050919050565b60006020820190508181036000830152612c9181612c55565b9050919050565b7f6e6f7420656e6f756768206d6174696320746f20636f766572206974656d207060008201527f7269636520616e64206d61726b65742066656500000000000000000000000000602082015250565b6000612cf4603383612154565b9150612cff82612c98565b604082019050919050565b60006020820190508181036000830152612d2381612ce7565b9050919050565b7f6974656d20616c726561647920736f6c64000000000000000000000000000000600082015250565b6000612d60601183612154565b9150612d6b82612d2a565b602082019050919050565b60006020820190508181036000830152612d8f81612d53565b9050919050565b6000606082019050612dab6000830186612b2e565b612db86020830185612290565b612dc56040830184612379565b949350505050565b6000604082019050612de26000830185612379565b612def6020830184612379565b9392505050565b6000606082019050612e0b6000830186612290565b612e186020830185612290565b612e256040830184612379565b949350505050565b7f4552433732314d657461646174613a2055524920717565727920666f72206e6f60008201527f6e6578697374656e7420746f6b656e0000000000000000000000000000000000602082015250565b6000612e89602f83612154565b9150612e9482612e2d565b604082019050919050565b60006020820190508181036000830152612eb881612e7c565b9050919050565b600081905092915050565b6000612ed582612149565b612edf8185612ebf565b9350612eef818560208601612165565b80840191505092915050565b6000612f078285612eca565b9150612f138284612eca565b91508190509392505050565b7f4e487b7100000000000000000000000000000000000000000000000000000000600052601160045260246000fd5b6000612f59826121fb565b9150612f64836121fb565b9250828201905080821115612f7c57612f7b612f1f565b5b92915050565b6000612f8d826121fb565b9150612f98836121fb565b9250828202612fa6816121fb565b91508282048414831517612fbd57612fbc612f1f565b5b5092915050565b7f4e487b7100000000000000000000000000000000000000000000000000000000600052601260045260246000fd5b6000612ffe826121fb565b9150613009836121fb565b92508261301957613018612fc4565b5b828204905092915050565b7f4552433732313a206f70657261746f7220717565727920666f72206e6f6e657860008201527f697374656e7420746f6b656e0000000000000000000000000000000000000000602082015250565b6000613080602c83612154565b915061308b82613024565b604082019050919050565b600060208201905081810360008301526130af81613073565b9050919050565b7f4552433732313a207472616e736665722066726f6d20696e636f72726563742060008201527f6f776e6572000000000000000000000000000000000000000000000000000000602082015250565b6000613112602583612154565b915061311d826130b6565b604082019050919050565b6000602082019050818103600083015261314181613105565b9050919050565b7f4552433732313a207472616e7366657220746f20746865207a65726f2061646460008201527f7265737300000000000000000000000000000000000000000000000000000000602082015250565b60006131a4602483612154565b91506131af82613148565b604082019050919050565b600060208201905081810360008301526131d381613197565b9050919050565b60006131e5826121fb565b91506131f0836121fb565b925082820390508181111561320857613207612f1f565b5b92915050565b7f4552433732313a20617070726f766520746f2063616c6c657200000000000000600082015250565b6000613244601983612154565b915061324f8261320e565b602082019050919050565b6000602082019050818103600083015261327381613237565b9050919050565b7f4552433732313a207472616e7366657220746f206e6f6e20455243373231526560008201527f63656976657220696d706c656d656e7465720000000000000000000000000000602082015250565b60006132d6603283612154565b91506132e18261327a565b604082019050919050565b60006020820190508181036000830152613305816132c9565b9050919050565b6000613317826121fb565b91507fffffffffffffffffffffffffffffffffffffffffffffffffffffffffffffffff820361334957613348612f1f565b5b600182019050919050565b600061335f826121fb565b915061336a836121fb565b92508261337a57613379612fc4565b5b828206905092915050565b7f4e487b7100000000000000000000000000000000000000000000000000000000600052603260045260246000fd5b600081519050919050565b600082825260208201905092915050565b60006133db826133b4565b6133e581856133bf565b93506133f5818560208601612165565b6133fe8161218f565b840191505092915050565b600060808201905061341e6000830187612290565b61342b6020830186612290565b6134386040830185612379565b818103606083015261344a81846133d0565b905095945050505050565b600081519050613464816120ba565b92915050565b6000602082840312156134805761347f612084565b5b600061348e84828501613455565b91505092915050565b7f4552433732313a206d696e7420746f20746865207a65726f2061646472657373600082015250565b60006134cd602083612154565b91506134d882613497565b602082019050919050565b600060208201905081810360008301526134fc816134c0565b9050919050565b7f4552433732313a20746f6b656e20616c7265616479206d696e74656400000000600082015250565b6000613539601c83612154565b915061354482613503565b602082019050919050565b600060208201905081810360008301526135688161352c565b905091905056fea2646970667358221220784f89d427b9a6230c6307e8d8b9b01534cd1099b3f6cb812e85180c7d4e68a264736f6c63430008110033a26469706673582212202336468d61d75228a2c10f8145c190cab3aca85294629c258f90812070f31ba964736f6c63430008110033",
  "linkReferences": {},
  "deployedLinkReferences": {}
}